:100000000C9462000C948A000C948A000C948A0070
:100010000C948A000C948A000C948A000C948A0038
:100020000C948A000C948A000C948A000C948A0028
:100030000C948A000C948A000C948A000C948A0018
:100040000C94F9010C948A000C948A000C948A0098
:100050000C948A000C948A000C948A000C948A00F8
:100060000C948A000C948A000000000024002700F1
:100070002A0000000000250028002B0000000000DE
:1000800023002600290004040404040404040202DA
:100090000202020203030303030301020408102007
:1000A0004080010204081020010204081020000012
:1000B0000008000201000003040700000000000027
:1000C00000006A0411241FBECFEFD8E0DEBFCDBF11
:1000D00011E0A0E0B1E0ECEEF9E002C005900D9275
:1000E000A63FB107D9F723E0A6EFB1E001C01D920A
:1000F000A035B207E1F710E0C2E6D0E004C02197D6
:10010000FE010E94EE04C136D107C9F70E944302E6
:100110000C94F4040C94000096E0899FD001112403
:10012000A150BE4F90967C936E935F9791E091960D
:100130009C939197E0916C02F0916D0290916B020B
:10014000992339F0309751F0811108C080911B023A
:100150000994309719F05C968C91FACF0895CF925C
:10016000DF92EF92FF920F931F9396E0899FF00129
:100170001124E150FE4F11A2278D30A1213031050D
:1001800051F178F02230310509F451C023303105A6
:1001900009F452C01F910F91FF90EF90DF90CF9024
:1001A00008956623B9F361E070E00E948C002FB7D8
:1001B000F8948091FB019091FC01A091FD01B09118
:1001C000FE012FBF8093570290935802A0935902CB
:1001D000B0935A02DFCF9FB7F894C090FB01D09044
:1001E000FC01E090FD01F090FE019FBF00915702DD
:1001F000109158022091590230915A02C01AD10A26
:10020000E20AF30A0091690210916A0230E020E0EC
:100210000C151D052E053F0550F462E070E01F919E
:100220000F91FF90EF90DF90CF900C948C006111B4
:10023000B1CF63E070E0F3CF70E060E0F0CF8330E7
:1002400081F028F4813099F08230A9F00895873048
:10025000A9F08830C9F08430B1F4809180008F7D9E
:1002600003C0809180008F7780938000089584B5CB
:100270008F7784BD089584B58F7DFBCF8091B000CA
:100280008F778093B00008958091B0008F7DF9CF73
:10029000CF93DF93282F30E0F901E255FF4F84918F
:1002A000F901E656FF4FD491F901EA57FF4FC49187
:1002B000CC23A1F081110E941F01EC2FF0E0EE0F82
:1002C000FF1FE458FF4FA591B491EC91ED2381E01D
:1002D00090E009F480E0DF91CF91089580E090E014
:1002E000FACF862F0C9448011F93CF93DF93282FCA
:1002F00030E0F901E255FF4F8491F901E656FF4FD6
:10030000D491F901EA57FF4FC491CC23A9F0162FDD
:1003100081110E941F01EC2FF0E0EE0FFF1FEE583D
:10032000FF4FA591B4918FB7F894EC91111108C0CB
:10033000D095DE23DC938FBFDF91CF911F9108957D
:10034000DE2BF8CFCF93DF93CEE6D2E08991909168
:10035000760260E0911161E00E94740182E0C5378D
:10036000D807A1F7DF91CF910895862F642F0C94C1
:100370007401CF93DF9390E0FC01E656FF4F249188
:100380008A579F4FFC0184918823C9F090E0880F21
:10039000991FFC01E859FF4FA591B491FC01EE585B
:1003A000FF4FC591D49161110DC09FB7F8948C9106
:1003B000209582238C938881282328839FBFDF91F7
:1003C000CF910895623051F49FB7F8943C91822FF9
:1003D000809583238C93E8812E2BEFCF8FB7F894F1
:1003E000EC912E2B2C938FBFEACF862F642F0C9489
:1003F000B9011F920F920FB60F9211242F933F93C2
:100400008F939F93AF93BF938091FB019091FC01D9
:10041000A091FD01B091FE013091FA0123E0230F7C
:100420002D3758F50196A11DB11D2093FA01809337
:10043000FB019093FC01A093FD01B093FE0180911C
:10044000F6019091F701A091F801B091F9010196A0
:10045000A11DB11D8093F6019093F701A093F801BF
:10046000B093F901BF91AF919F918F913F912F91DF
:100470000F900FBE0F901F90189526E8230F02963D
:10048000A11DB11DD2CF789484B5826084BD84B59E
:10049000816084BD85B5826085BD85B5816085BD7F
:1004A00080916E00816080936E0010928100809137
:1004B00081008260809381008091810081608093BF
:1004C0008100809180008160809380008091B100E4
:1004D00084608093B1008091B00081608093B0000F
:1004E00080917A00846080937A0080917A008260A3
:1004F00080937A0080917A00816080937A00809165
:100500007A00806880937A001092C100812C912C2F
:100510005401839444244A94542C50E0652E50E0B6
:10052000752E51E050936B028FB7F8944091FB0108
:100530005091FC016091FD017091FE018FBF80918F
:100540005B0290915C02A0915D02B0915E02481B3B
:10055000590B6A0B7B0B8091670290916802B0E0A7
:10056000A0E084179507A607B70708F019C1C0E0F7
:1005700080916502C81760F4E0916102F091620217
:10058000EC0FF11D62E080810E94B901CF5FF0CFD6
:10059000312C80916602381608F05FC0032D10E000
:1005A000E0916302F0916402E00FF11F61E080814D
:1005B0000E94B901E0916302F0916402E00FF11F23
:1005C00060E080810E947401D501C401032C04C045
:1005D000880F991FAA1FBB1F0A94D2F76C017C01D8
:1005E000E094F094212C809165022816F8F4C22D35
:1005F000D0E0E0916102F0916202EC0FFD1F80817A
:100600000E9448012496CC0FDD1FC150DE4F892B7C
:1006100041F4888199818C299D2999838883239429
:10062000E2CF888199818E219F21F7CFE0916302EB
:10063000F0916402E00FF11F61E080810E9474017B
:100640008091630290916402080F191F60E0F80125
:1006500080810E94B90133949CCF0FEF11E0E80133
:100660008F8D98A1892B21F41C8E5E8E4D8E19A240
:1006700026968BE392E08C179D0791F7D12C809101
:100680006502D81608F053C0C12CED2CF12CEE0CED
:10069000FF1CF701E95FFD4F7F0120916602C21642
:1006A00008F043C0F701608171810C2C02C076957F
:1006B00067950A94E2F7D29E900111242C0D311D0A
:1006C000EFEFF1E080E0458D568D2417350709F4F2
:1006D000FFC08F5F36968A30B1F760FF24C0EFEF1E
:1006E000F1E090E080E0448D411118C0E0915F029C
:1006F000F0916002E20FF31F408156E0589FF00135
:10070000599FF00D1124E150FE4F448F368F258FF5
:1007100010A2178E61E00E94AF0005C001963696C8
:100720008A30910501F7C394B8CFD394A8CF80E065
:10073000F80191A19111892F0A5F1F4FC017D107AE
:10074000B9F79FB7F8944091FB015091FC0160917B
:10075000FD017091FE019FBF40935B0250935C02CC
:1007600060935D0270935E028823D1F08091200235
:100770008823B1F080911E0290911F02019781F4AD
:1007800080911B02E82F082E000CFF0BF0978111BF
:100790000AC06114710409F4C4CE0E940000C1CEE5
:1007A00010926B02F6CF8A32A1F3833291F3CE2FEF
:1007B000EA3008F443C0E154E93308F07EC0F0E0C9
:1007C000EC51FC4F0C94EE041D045D0437045D04F1
:1007D0003D043F045D044104450447045D044904AD
:1007E0005D045D045D044F045D045D045D045D040F
:1007F00057045D045D045D045D045D045D045D04F7
:100800005D045D045D045D045D04630439043B0420
:100810005D045D045D0443045D045D045D045D04EA
:100820005D044B044D045D04510453045D04550400
:1008300059045D045D045D045B04CAE00EE612E049
:10084000F7E0CF9FE001112487E0F82EF801EC0FCC
:10085000FD1F6185F80181918F01909176029111C0
:1008600034C00E947401FA94F110F0CF92CFCCE022
:10087000E5CFCDE0E3CFCEE0E1CFCFE0DFCFC0E109
:10088000DDCFC1E1DBCFC2E1D9CFC3E1D7CFC4E136
:10089000D5CFC5E1D3CFC6E1D1CFC7E1CFCFC8E136
:1008A000CDCFC9E1CBCFCAE1C9CFCBE1C7CFCCE136
:1008B000C5CFCDE1C3CFCEE1C1CFCF3108F4BECF9C
:1008C0000E94A20166CFCBE0B9CFF1E06F27C9CF7C
:1008D000617021CF0F931F93CF93DF93109201028A
:1008E00010920502109204021092060280EF91E02D
:1008F000909300028093FF01EBE1F2E010821482FA
:1009000013821582369682E0E735F807B9F783E05F
:1009100091E0909362028093610280E091E0909375
:1009200064028093630284E08093650283E0809395
:10093000660287E091E09093600280935F028AE014
:1009400090E0909368028093670284EF91E0909327
:100950006A028093690210926D0210926C021092EA
:100960005B0210925C0210925D0210925E02109285
:100970006B0289EDE3E1F1E0A7E7B2E001900D92AF
:100980008A95E1F781E0809376028DE080936E0294
:100990008CE080936F028BE0809370028AE08093FA
:1009A000710289E08093720288E08093730287E08D
:1009B000809374028EE080937502CEE6D2E005E764
:1009C00012E061E089910E94B9010C171D07C9F777
:1009D000DF91CF911F910F910C94A201EE0FFF1F99
:0C09E0000590F491E02D0994F894FFCFED
:1009EC000201000605040331323334353637383909
:1009FC002A30230101010101010000010100000066
:100A0C0000010100010100010101010100000100D0
:100A1C0001010000010101000101000101010001BF
:100A2C0001010101010101000000000101010101AE
:100A3C00010101010101000101010101000101019C
:100A4C000000010101010101000001010100000091
:100A5C000001010001000101010100010100000180
:100A6C00010101010000000101010001010001016F
:100A7C000100000100010101000000000101000063
:100A8C000101010000000000000101010000000153
:100A9C000001000100000101010001010100000141
:100AAC000101010101000001010000000001000131
:100ABC000000000101010100010101010100000021
:100ACC000101010000000101010001010000000012
:060ADC00F501B5017101F6
:00000001FF
